:060000000A128A11FA2F1A
:100D3C007030831603138F040F14080083160313EB
:100D4C0081128111073081044E308312031381000C
:100D5C0008008312031310149010901090161016A4
:100D6C00FF308F0006308E000C1008008312031326
:100D7C008C100330920412158C1CC52EC62EC22E5C
:100D8C008C108316031307118710080083160317A2
:100D9C008901073083160313850083120313850121
:100DAC00831603138701831203138701831603131E
:100DBC008901831203138901080083160313071595
:100DCC00FA3092003F308312031397051708F0395D
:100DDC000C3897000F309500CF309705831603130E
:100DEC008714831203131D08F0390C389D000F3043
:100DFC009B009D120800831603130508013885001B
:100E0C0083160317080801388800831203139F13F5
:100E1C001F17831603139F121F129F1383120313A2
:100E2C009F121F129F111F111F144230F000F00B64
:100E3C001D2F0000831203130C13831603130C17BE
:100E4C000B178B17831203139F1408000A128A11B5
:100E5C00CC260A128A110A128A119E260A128A11AB
:100E6C000A128A1101270A128A110A128A11E32620
:100E7C000A128A110A128A11BC260A128A110A1243
:100E8C008A11AF260A128A110A128A11A4260A1292
:100E9C008A11831203130C1F542F552FCB2FAD2FF8
:100EAC001E08F1000310710C7C3E95001E080139E0
:100EBC00F100F10EF10D17087106DF39710697007C
:100ECC00831603131E08F10007300310F10CFF3ECC
:100EDC00031D6B2F7108F200F20E83120313170817
:100EEC007206EF39720697001F08C33904389F0049
:100EFC00C32F1E08F1000310710C7C3E9B001E08D2
:100F0C000139F100F10EF10D1D087106DF39710682
:100F1C009D00831603131E08F10007300310F10C1B
:100F2C00FF3E031D942F7108F200F20E831203137F
:100F3C001D087206EF3972069D001F08C339083868
:100F4C009F00C32F1E08F400C3309F05C32F1F0C36
:100F5C00F100710C0F39F200F3017308003A031918
:100F6C00B82FC32F7208003A0319562F013A0319F0
:100F7C007F2F033A0319A82FC32F0D30F100F10B6B
:100F8C00C52F831203130C139F140B1DCE2FCF2FC1
:100F9C00E62F74080106031DD42FD52F4F2F87156C
:100FAC000630F2003030F100F10BDA2FF20BDA2FB1
:100FBC000000831203138715463081000B114F2F4D
:100FCC0087150330F2009730F100F10BEB2FF20B89
:100FDC00EB2FF02F831203138711833081000B1139
:100FEC004F2F0A128A110028F401F50183010A120D
:040FFC008A112C2FFB
:08400000FF3FFF3FFF3FFF3FC0
:04400E00C420FF3F8C
:00000001FF
